:020000040800F2
:10000000E8F90424E5040008599C0108A3610108EB
:100010007D9A0108BF480008AD46020800000000B4
:1000200000000000000000000000000017050008AC
:10003000B990000800000000E538000871000208CF
:100040001F0500081F0500081F050008CDF801085E
:100050001F0500081F0500081F0500081F050008F0
:100060001F0500081F0500081F0500081F050008E0
:10007000CD5500081F0500081F0500081F050008D2
:100080001F0500081F0500081F0500081F050008C0
:100090001F0500081F0500081F0500081F050008B0
:1000A0001F0500081F0500081F0500081F050008A0
:1000B000D92702081F0500081F0500081F050008B2
:1000C0001F0500081F0500081F0500081F05000880
:1000D0001F050008554602081F0500081F050008F7
:1000E0001F050008BDF80108000000001F050008FA
:1000F0001F0500081F0500081F0500081F05000850
:100100001F0500081F0500081F0500081F0500083F
:100110001F0500081F0500081F0500081F0500082F
:100120001F0500081F0500081F0500081F0500081F
:100130001F0500081F0500081F0500081F0500080F
:1001400000000000000000000000000000000000AF
:100150001F0500081F0500081F0500081F050008EF
:100160001F0500081F0500081F0500081F050008DF
:100170001F0500081F0500081F05000800000000FB
:100180001F0500081F0500081F0500081F050008BF
:100190001F0500081F0500081F0500081F050008AF
:1001A000A98F01081F0500081F0500081F0500088A
:1001B0001F0500081F0500081F0500081F0500088F
:1001C0001F0500081F0500081F0500081F0500087F
:1001D0001F0500081F0500081F0500081F0500086F
:1001E0001F0500081F0500081F0500081F0500085F
:1001F0001F0500081F0500081F0500081F0500084F
:100200001F0500081F0500081F0500081F0500083E
:100210001F0500081F0500081F0500081F0500082E
:100220001F0500081F0500081F050008000000004A
:100230001F0500081F05000800000000DD3A000847
:100240001F0500081F0500081F0500081F050008FE
:100250001F0500081F0500081F0500081F050008EE
:100260001F0500081F0500081F0500081F050008DE
:100270001F0500081F0500081F05000800000000FA
:100280001F050008000000001F0500080000000016
:10029000000000001F05000800F002F800F012F94D
:1002A0000AA090E8000C82448344AAF10107DA45D1
:1002B00001D100F007F9AFF2090EBAE80F0013F010
:1002C000010F18BFFB1A43F001031847442D060025
:1002D000642D06000A444FF0000C10F8013B13F0A7
:1002E000070408BF10F8014B1D1108BF10F8015B8F
:1002F000641E05D010F8016B641E01F8016BF9D182
:1003000013F0080F1EBF10F8014BAD1C0C1B09D1D8
:100310006D1E58BF01F801CBFAD505E014F8016B4A
:1003200001F8016B6D1EF9D59142D6D370470000DC
:100330000023002400250026103A28BF78C1FBD8EE
:10034000520728BF30C148BF0B6070474B1C012BC0
:1003500098BF70472DE9F003911C9B08B1F8048009
:10036000B1F802900A8831F802CC804481440244FA
:100370008444D9F80070D8F800601568DCF80040B3
:10038000C9F80060C8F80070CCF800501460D9F8C3
:100390000470D8F804605568DCF80440C9F80460BB
:1003A000C8F80470CCF80450546008315B1ED5D1F5
:1003B000BDE8F00370474B1C012B98BF70472DE937
:1003C000F003911C9B08B1F80480B1F802900A88F0
:1003D00031F802CC00EB580800EB590900EB52024F
:1003E00000EB5C0CD9F80070D8F800601568DCF8F8
:1003F0000040C9F80060C8F80070CCF800501460E4
:1004000008315B1EDFD1BDE8F00370476E2901F0B3
:10041000AA87702901F0C584662934F0738765299D
:1004200034F07087672934F06D87612934F06C8768
:1004300003681B0A28BF41F08001692901F0368456
:10044000642901F03384752901F030846F2902F0AA
:10045000B882782901F09184E92902F05382E429D5
:1004600002F05082F52902F04D82EF2902F0B582A8
:10047000F82901F090840368DB0928BF41F080016E
:10048000632902F0C281732902F0C781E32902F0D7
:100490002585F32902F02A85002070471FB534F026
:1004A0001BFF02F005FB04000020002134F0F0FEE9
:1004B000401C60600020002134F0D4FEE0601FBDCD
:1004C00010B510BD02F0B0FD1146FFF7E7FF34F0A4
:1004D0003FFD02F0D7FD03B4FFF7F2FF03BC34F099
:1004E0007EFC000011488047DFF84400016841F4B9
:1004F00070010160BFF34F8FDFF83800016821F011
:1005000040410160BFF36F8F0B480047FEE7FEE7F5
:10051000FEE7FEE7FEE7FEE7FEE7FEE7FEE7FEE7B3
:1005200006480749074A084B704700009100020837
:1005300088ED00E034EF00E099020008E8F30424BD
:10054000E8F90424E8F50424E8F5042472B67047B9
:1005500062B67047EFF3108072B6704780F3108870
:10056000704730BF704720BF7047B0FA80F07047C7
:1005700090FAA0F0B0FA80F0704790FAA0F07047BF
:100580009FED3E0A5FEA920C59D000BFD0ED000A01
:1005900090ED011A0B1D60EEA00A083041EE010A31
:1005A000F5EEC00AF1EE10FAA6BFB1EEE01A81ED49
:1005B000001A81ED000AD0ED000A90ED011A00F159
:1005C000080160EEA00A181D41EE010AF5EEC00A0E
:1005D000F1EE10FAA6BFB1EEE01A83ED001A83ED3A
:1005E000000AD1ED000A91ED011A031D60EEA00A88
:1005F000083141EE010AF5EEC00AF1EE10FAA6BF8D
:10060000B1EEE01A80ED001A80ED000AD1ED000A8B
:1006100091ED011A081D60EEA00A191D001D41EEA2
:10062000010AF5EEC00AF1EE10FAA6BFB1EEE01A2B
:1006300083ED001A83ED000ABCF1010CA6D112F083
:10064000030208BF704700BFD0ED000A90ED011A09
:1006500008300B4660EEA00A091D41EE010AF5EED6
:10066000C00AF1EE10FAA6BFB1EEE01A83ED001A4F
:1006700083ED000A521EE7D1704700000000000021
:100680002DE9F04F6FF0030C2DED028BDFEDF88AB2
:10069000B0F800805FEAD30BD0E901490CEB880C7D
:1006A00004EB0C0718BF4FEAD80E00F0458100BFDD
:1006B00091ED000A01F1040C87ED000A91ED010AA9
:1006C0000CF1040587ED010A9CED010AB0EE685AB1
:1006D00087ED020A95ED010A291D87ED030A95EDC4
:1006E000020A07F11C0687ED040A95ED030AF0EEF5
:1006F000686A87ED050A95ED040A5FEA0E0587ED45
:10070000060A9CED060AB0EE457A87ED070AD4ED9D
:10071000002A94ED012AD4ED021A94ED031AD4EDC7
:10072000040A94ED050A94ED063A06F10407CC4656
:10073000F0EE454AB0EE458AF0EE455AF0EE457AC5
:10074000B0EE456A04F11C0601F114017ED000BF31
:100750009CED004AD6ED003A0CF1040A42EE846AA0
:1007600002EE045A01EE847A41EE044A00EE848AD5
:1007700040EE045A43EE047A03EE846A9AED004A8E
:10078000D6ED012A06F1040C42EE046A01EE845A09
:1007900001EE047A40EE844A00EE048A43EE045AE5
:1007A00043EE847A02EE846A9AED014A0CF1040C5D
:1007B0000AF104069CED002A41EE846A01EE045A17
:1007C00000EE847A40EE044A03EE048A43EE845A33
:1007D00042EE847A02EE046A96ED014ADCED011ADB
:1007E0006D1E41EE046A00EE845A00EE047A43EE78
:1007F000044A03EE848A42EE845A42EE047A01EE01
:10080000846A96ED024A9CED021A40EE846A00EE7C
:10081000045A03EE047A43EE844A02EE848A42EEDE
:10082000045A41EE847A01EE046A96ED034ADCED47
:10083000030A40EE046A03EE045A03EE847A42EEA1
:10084000844A02EE048A41EE845A00E035E041EE2B
:10085000047A00EE846A96ED044A9CED040A06F1DF
:10086000140A43EE046A03EE845A02EE847A42EEDE
:10087000044A01EE848A41EE045A40EE847A00EE86
:10088000046A9AED004A9CED053A0CF1140643EE19
:10089000846A02EE845A02EE047A41EE844A01EE42
:1008A000048A40EE845A40EE047A03EE046A0AF1A8
:1008B000040C06F104067FF44BAF18F0070A24D0AD
:1008C000FCEC013ABAF1010AB6EC014A42EEA36A25
:1008D00002EE235AF0EE422A01EEA37AB0EE612A2C
:1008E00041EE234A00EEA38A40EE235A43EE237AD8
:1008F00004EE236AF0EE411AB0EE601AF0EE400A00
:10090000B0EE430AB0EE443ADAD1C2ED006A82EDAD
:10091000015A82ED027AC2ED034A82ED048AC2EDE9
:10092000055AC2ED067A1C322034BBF1010BA2EC51
:10093000016A7FF4BDAE00BF13F0070641D000BFCF
:10094000B1EC010AB8F1010309F1040C04F104054A
:10095000A7EC010AD4ED000A99ED001AB0EE680A7E
:1009600000EE810A28D0B3F1004F7DD2002B23DDA9
:1009700013F0010FA5F10405ACF1040C08D0D5ED7E
:10098000010A9CED011A2D1D0CF1040C00EE810AE8
:100990005B1011D095ED011ADCED011AD5ED020ABC
:1009A0005B1E01EE210A9CED021A05F108050CF10F
:1009B000080C00EE810AEDD1241D761EA2EC010A7E
:1009C000BED1A8F101054068AB0822D0B3F1004FB9
:1009D00059D2002B1DDD224601469C4692ED000AAD
:1009E000BCF1010C81ED000A92ED010A81ED010AD2
:1009F00092ED020A81ED020A92ED030A02F1100261
:100A000081ED030A01F11001E8D104EB031400EBBE
:100A1000031015F0030104BFBDEC028BBDE8F08F9D
:100A2000B1F1004F47D200291BDD11F0010FA4F1F5
:100A30000402A0F1040005D092ED010A80ED010A44
:100A4000001D121D49080CD092ED010A02F10802A6
:100A500080ED010A083092ED000A491E80ED000A7F
:100A6000F2D1BDEC028B00E004E0BDE8F08F0000A5
:100A700000000000F5EC010A5B1EBCEC011A00EE60
:100A8000810AF7D198E794ED000A80ED000A94ED11
:100A9000010A80ED010A94ED020A80ED020A083095
:100AA00094ED030A5B1E80ED010A04F1100400F1CD
:100AB0000800E8D1ADE7B4EC010A491EA0EC010A38
:100AC000F9D1CEE770B504461D460498A2600844EB
:100AD00021808000011F184601F071FB656070BD28
:100AE00091ED001AD1ED010AB6EE000A31EE011ABD
:100AF00070EEA00A0388D0F814C001F108005B1E54
:100B000071EE201A71EE600A01EBC3010CF1080CC2
:100B100021EE801A60EE800A82ED001AC2ED010A11
:100B2000083200BFD1ED002A90ED003A9CED001A8A
:100B3000D1ED010A72EEC33AD0ED011A9CED012A03
:100B400033EE223A30EEA14A61EE234A62EE232AC6
:100B500071EEE00A22EE042A73EE241A21EE041A42
:100B600070EEA20A083071EE821A083970EEC10ADE
:100B70005B1E21EE801A0CF1080C60EE800AA2ECDC
:100B8000011AE2EC010ACDD17047D1ED000A91EDD6
:100B9000011AB6EE000A038870EE811A70EEC10ADF
:100BA000D0F814C05B1E01F1080021EE801A60EE3F
:100BB000800A01EBC30182ED001AC2ED010A02F1C5
:100BC00008020CF1080C08BF704700BFD1ED002AE5
:100BD00090ED003ADCED003AD1ED010A73EE621AB5
:100BE00090ED011A9CED014A73EE222A31EE202A83
:100BF00023EEA15A71EE600A64EE211A64EE024AF5
:100C000032EEC51A23EE822A70EEA10A083031EEC8
:100C1000641A083970EEC20A5B1E21EE001A0CF14C
:100C2000080C60EE800AA2EC011AE2EC010ACDD1B8
:100C300070472DE9F0410446008A1D0016460F4614
:100C40004FEA500020800AD02046FFF79EFF2A4638
:100C500031462046BDE8F041012300F017BC0123D6
:100C60002A46204600F012FC324639462046BDE8AE
:100C7000F04135E70022018249080180B1F5807F0B
:100C800031D008DC10294FD0202945D040293BD055
:100C9000802931D008E0B1F5007F1BD0B1F5806F1D
:100CA0000FD0B1F5006F03D04FF0FF321046704700
:100CB0004FF46E638381214B8360214B2149436054
:100CC00039E04FF4E16383811F4B83601F4B204960
:100CD000436030E04FF4E07383811E4B83601E4B12
:100CE0001E49436027E04FF4DC7383811C4B836013
:100CF0001C4B1D4943601EE0D02383811B4B836046
:100D00001B4B1C49436016E0382383811A4B8360D8
:100D10001A4B1B4943600EE030238381194B8360DB
:100D2000194B1A49436006E014238381184B8360F2
:100D3000184B194943604161B8E70000203B0508A2
:100D400088E3040860980508102D050888C3040886
:100D5000607805089029050888B3040860680508CC
:100D60002026050888AB0408606005088024050873
:100D700088A70408605C05081024050888A50408F5
:100D8000605A0508B023050888A4040860590508BE
:100D90008823050808A40408E05805089FED3A1ABE
:100DA0008B084DF8044DB0EE410A1DD0B3F1004F51
:100DB0004DD2002BC4BF84461C4615DDDCED002A55
:100DC0009CED012ADCED021A02EEA20ADCED030A18
:100DD000641E0CF1100C02EE020A01EEA10A00EEF4
:100DE000A00AEBD100EB031011F003031BD0B3F109
:100DF000004F42D2002B16DD13F0010FA0F10400CA
:100E000004D0D0ED010A001D00EEA00A5B080AD054
:100E1000D0ED011AD0ED020A083001EEA10A5B1EE6
:100E200000EEA00AF4D100EE901AF8EE601AC0EEBF
:100E3000210AF5EEC00AF1EE10FAA6BFB1EEE00A03
:100E400082ED000A82ED001A5DF8044B7047D0ED88
:100E5000000A00EEA00AD0ED010A08305B1E00EE89
:100E6000A00AD0ED000A00EEA00AD0ED010A00F1C0
:100E7000080000EEA00AEAD1B6E7F0EC010A5B1E1A
:100E800000EEA00AF9D1CEE7000000002DE9F047FE
:100E9000064688462DED088B0088D6F804C0450824
:100EA00001EB8004AB08274601EB850004EB8502CB
:100EB0007ED000BF91ED001AD4ED001AD1ED013AB9
:100EC000D4ED01BAD1ED025A94ED022A91ED030A54
:100ED000D4ED032AD0ED034AD2ED030A71EE217A54
:100EE000D0ED006A90ED013A90ED025A92ED007A51
:100EF00092ED016A92ED024A33EEAB8A75EE828A78
:100F000030EE229AC1ED007A76EE879A81ED018A61
:100F100033EE06AAC1ED028A75EE04AA81ED039AAA
:100F200034EEA0BAC0ED009A80ED01AAC0ED02AA8D
:100F300070EE622A80ED03BA71EE611A9CED000A30
:100F400073EEEB3A70EEE44ADCED010A34EE454A0A
:100F500035EEC22A21EE805A63EE805A63EEA03A43
:100F600037EE661A36EE433A61EEA01A35EE236A82
:100F700061EE203A23EE005A63EE200A21EE000AC9
:100F800075EEE11A84ED006A33EEC51AC4ED011A5C
:100F900030EE800A82ED001A0CF1080A82ED010A97
:100FA0005B1E9AED000A04F1080402F1080900E052
:100FB0002DE0DAED010A22EE001A62EE801A62EEEE
:100FC000A02A22EE202A0AF1080C00F1100031EECE
:100FD000223A24EE201A64EE802A64EEA00A24EE5F
:100FE000000A71EEC21A84ED003A31EE621AC4EDC5
:100FF000011A30EE800A89ED001A04F1080489ED27
:10100000010A01F1100109F108027FF453AF72687F
:1010100002232946404600F0E1FA72682946384624
:101020000223BDEC088BBDE8F04700F0D7BA2DE9EC
:10103000F34F04244FF0060B2DED0A8B87B0119867
:10104000DDF844C0D1ED003A0088DCF804C0460861
:101050000CF1080901EB860202EB8600D2ED000AD2
:1010600090ED002A00EB86031D1F93ED000A01940A
:1010700005EB860473EE821A0492760805910CF152
:101080001008D1ED014A30EEA11A90ED014A93ED1E
:10109000013A33EEC22A71EE002A92ED011A74EE83
:1010A000C43AC1ED002A74EE842A009601F10401CD
:1010B00092ED015A71EE024A31EEE06A72EEC11A07
:1010C00032EE412A35EE225A93ED014A74EEC32ADC
:1010D00071EEC31A32EE032A73EEE05A35EE043A8B
:1010E0000CF1180703900293A6F1020C70EEA33ADC
:1010F00081ED003A161F35EE801AC2ED002A02F18A
:10110000040E76EE400A8EED001A01F10402C0EDE5
:10111000000A00F104015FEA5C0AA0F1040CC1EDD1
:10112000001A0EF1040033EEC00A83ED002A03F129
:10113000040E01F104038EED000A0EF1040100F02B
:10114000078100BFD2ED007AD3ED006AD0ED002A0E
:1011500091ED002A37EEA61AD2ED010A90ED016A50
:10116000D1ED015A32EE810A31EE629A77EEE66AEB
:1011700070EE021A93ED010A76EE267AC2ED001A9D
:1011800030EE805AD0ED011A91ED013A71EE851AD8
:1011900075EE469A71EE831AC2ED011AD6ED003A49
:1011A000D5ED004ADCED001A94ED001A33EEA47A76
:1011B00016ED01AA55ED018A14ED014A31EE873A88
:1011C0003AEE285A33EE018A1CED013A86ED008A88
:1011D0005CED01AA37EEE58A7AEE857A54ED01AA34
:1011E00077EEAABA70EEC07A71EEC1AA46ED01BAE6
:1011F000D9ED010A37EEE20A72EEA77A7AEE682A92
:1012000030EE02BA99ED000A7AEEA28A68EE00BAD0
:101210002BEE20CA2BEE00BA28EE208A28EE80AAF8
:101220007BEE8CBA3BEE488AC0ED00BA80ED018AB5
:1012300033EEE48A38EE438A38EE048A28EE20BA88
:1012400068EEA00A28EE000A39EE428A3BEE4AAA6E
:1012500079EEE58A30EE800A8CED00AA0CED010AE9
:1012600037EE610A30EE417A98ED000A28EE009AD6
:10127000D8ED010A35EE435AB1EE47AA68EEA09ABE
:1012800068EE808A28EE208A35EE445A79EE299A53
:101290002AEE009A38EEC88AC3ED009A25EE000ABD
:1012A00083ED018A25EE208A67EE200A37EEC22AF6
:1012B00034EE433A39EE488A30EEC00A31EEC11AB4
:1012C00085ED008A05ED010A36EEC60AD7ED010A62
:1012D00031EE621A083030EE255A97ED000A22EE00
:1012E000206A083265EE005A22EE002A25EE205AC6
:1012F00061EE001A75EE865A083332EE452AC1EDCA
:10130000005A083D81ED012A33EEE42A0831083EF7
:1013100009F1080933EE422AACF1080C07EB8B0700
:1013200022EE203A61EE200A22EE000A73EE611AE4
:1013300030EE800AC4ED001A04ED010ADDF804E085
:10134000083CBAF1010A08EB8E087FF4FBAE00BF3F
:1013500092ED001A93ED000A92ED013A71EE000A47
:1013600071EE402A90ED000A30EE201A70EEC01A9D
:10137000D1ED000A71EE203A31EEE01AD3ED011AF8
:1013800033EE212A73EE611A31EEC03A30EE210AB3
:1013900073EE201A30EE603A90ED010A70EE220AE8
:1013A00032EEC04AD1ED012AC2ED003AD0ED013A49
:1013B00032EE400A70EEE20A33EE822AD1ED013AB3
:1013C00030EE620A74EE222A32EE232A82ED012ADE
:1013D00099ED002AD9ED013A20EE824A60EEA30A87
:1013E00061EEA33A61EE821A34EE232A71EEE00A2E
:1013F00080ED002AC0ED010AD8ED010AD8ED001AEF
:1014000020EE202A61EE213A20EE210A61EE200A28
:1014100033EE821A30EE600A83ED001A83ED010A82
:1014200097ED000AD7ED010A042362EE801A23EE3D
:10143000201A23EE000A62EEA00A31EE811A30EE85
:10144000600A81ED001A81ED010A11980099426845
:10145000059800F0C3F81198042300994268049895
:1014600000F0BCF81198042300994268039800F03A
:10147000B5F81198042300994268029807B0BDECB2
:101480000A8B02B0BDE8F04F00F0A8B82DE9F0419A
:101490000488012A984617460D46064621D1281D84
:1014A000FCB114F0010FA0F1080106D091ED020A81
:1014B000B1EE400A81ED020A08315FEA540C10D007
:1014C00091ED020AD1ED040ABCF1010CB1EE400A23
:1014D000F1EE600A81ED020AC1ED040A01F110018A
:1014E000EED1B4F5807F1BD008DC102C13D0202C5B
:1014F00016D0402C19D0802C0DD01CE0B4F5007F04
:1015000013D0B4F5806F06D0B4F5006F08D0B4F5F1
:10151000805F0AD00FE029463046FFF7B7FC0AE0AB
:1015200029463046FFF783FD05E072680123214616
:10153000284600F053F8B8F1000F04D0B1892846CE
:10154000B268FEF703FF012F18BFBDE8F08100EE7F
:10155000104AF7EE000A002CB8EE401A80EE810A1D
:1015600008BFBDE8F08114F0010FA5F108000ED00E
:10157000D0ED030A90ED021AF1EE600A21EE001A96
:1015800060EE800A80ED021AC0ED030A083061089F
:1015900008BFBDE8F08100BF90ED031AD0ED021A3C
:1015A000D0ED050A90ED042AB1EE411A61EE801AE1
:1015B000F1EE600A22EE002A21EE001A60EE800AA7
:1015C000C0ED021A80ED042A80ED031AC0ED050A71
:1015D000491E00F11000DFD1BDE8F0812DE9FF4F79
:1015E0002DED108B82B09FEDFE0A0B464FF0000CE4
:1015F0009E46DB080CEB0304E51800EBC408EC186E
:1016000004EB030600EBC50906EB030500EBCC0772
:1016100000EBC60605EB030AD6ED000AD7ED002A5B
:101620000AEB030B00EBC50532EEA01A00EBCA0A69
:1016300072EEE00A95ED002ADAED004AD8ED002AB4
:1016400099ED005A00EBCB0B00EBC404DBED001A64
:1016500094ED003A32EE824A75EE243A72EEC22AD6
:1016600033EE212A33EE613A71EE631A71EE233ABA
:1016700034EE421A34EE022A32EEC38A72EE832A24
:1016800035EE645A33EE823A33EEC22A62EE806A55
:1016900087ED003A86ED002AD8ED017A95ED014AF2
:1016A00097ED017A96ED013AD9ED013A9AED012ACA
:1016B000D4ED018ADBED014A77EE845A37EEC44A55
:1016C00037EE036A78EEA42A73EE827A73EEC23A9A
:1016D00035EE662A37EE433A75EE266A36EE677ABD
:1016E00036EE275A78EEE44A35EEE26A75EEA25AF3
:1016F000F44474EE648A74EE242A75EE257A35EE8D
:10170000655A71EE865A62EE802A28EE004A68EE2B
:10171000804A31EEC66A8C4537EE418A37EE017A4F
:1017200030EEC41A70EE841A73EE640A33EE244A63
:1017300033EEE23A73EEA22AC7ED017A86ED015A42
:10174000C9ED005A71EEA23A71EEE21A8AED006A12
:1017500089ED018A71EE032A8AED017A31EE431A8E
:10176000C8ED003A34EE663ACBED001A34EE264A64
:10177000C5ED002A70EEC24A84ED001A70EE820AAE
:1017800088ED013A8BED014AC5ED014AC4ED010A2D
:10179000FFF430AF082B3FBF02B0BDEC108B04B09C
:1017A000BDE8F08F4FF0000CCDF804C04FF0010CF5
:1017B000CDF800C0DDF804C0159C64440194DDF848
:1017C00000C065002E1902EBC40702EBC5083519ED
:1017D00097ED00FA97ED019A98ED00CAD8ED018ACD
:1017E00002EBC60702EBC5082E1935192C4402EB93
:1017F000C60602EBC50502EBC404D7ED00BA97EDAF
:10180000018A98ED00BAD8ED017AD6ED00AA96EDDE
:10181000017A95ED00AAD5ED016AD4ED009A94ED18
:10182000016A00BF0CEB0304E51800EBC409EC18D7
:1018300004EB030808EB030700EBCC0A00EBC5063A
:1018400000EBC80807EB030598ED001ADAED000A73
:1018500000EBC70705EB030B30EE814A30EEC11AEF
:10186000D7ED002AD9ED000A00EBCB0B00EBC50544
:1018700030EEA23A00EBC40470EEE20A9BED002ABF
:10188000D5ED001AD6ED002A94ED005AF44472EE1C
:10189000A14A75EE023A35EE422A72EEE11A74EE72
:1018A000642A33EE635A34EE244A33EE233A70EE60
:1018B000823A70EEC2EA8C4534EE032A74EE430A93
:1018C00023EE804A8AED002A9AED013A98ED012A2A
:1018D0006BEE20FA27EEA0DA73EE020A33EE423AFC
:1018E00031EEC42A71EE841AD9ED013A97ED014A1E
:1018F000D6ED015AD4ED01DA73EE84CA73EEC43A20
:1019000095ED014A75EE844A35EEC44A30EEE4EABC
:1019100070EEA45ADBED014A7DEEA40A7DEEE44AA6
:101920007CEEE0DA7CEEA0CA72EEAD0A72EEED2A31
:1019300075EEACDA75EEEC5ACAED01DA67EEA5DAAF
:101940006BEE25CA7EEE455A3EEE055A7FEEADDAC5
:101950007CEECDCA28EEA5EAC8ED00DA6CEE20DAFE
:10196000C8ED01CA6CEE255A68EEA00A73EEE4CA0F
:1019700073EEA43A7DEE8EDA75EEE04A6CEE80CA24
:101980002AEE22EA66EEA25A63EE803AC6ED00DA4B
:1019900073EE6C2A2EEE80DA33EE2C3AC6ED014A55
:1019A00066EE85FA74EE634A74EE233A2AEE055A1F
:1019B00071EE4D0A33EE614A31EE0D1A3EEE2FEA1A
:1019C00073EE211A32EEC23A75EE655A72EE822A31
:1019D00085ED00EA31EE232A29EE045A02E00000E8
:1019E000F304353F31EE631A70EEA43A70EEE40A68
:1019F0006FEE024AC5ED015A66EE215A2FEE044AF7
:101A000034EE855A69EE814A29EE022A69EEA11A5E
:101A100026EE011A74EEA55A34EE422A67EE034A06
:101A200071EEC11A2AEE831A27EE233A2AEEA34A50
:101A300089ED005A89ED012A6BEEA03A28EE222AA0
:101A400031EE433A2BEEA21A68EE200A34EE244A15
:101A5000CBED005ACBED011A73EE821A71EE600ADB
:101A600087ED004A87ED013AC4ED001AC4ED010A82
:101A7000FFF4D8AEDDF800C00CF1010CCDF800C0C9
:101A800063453FF697AE159C4FF6FF7C072B0CEA9B
:101A9000C40CCDF854C03FF6A9AD02B0BDEC108B1C
:101AA00004B0BDE8F08F53EA020C00F069802DE924
:101AB000F04B4FF00006002B1FBFB3FA83F503FA7B
:101AC00005F424FA05F65E4012BF1643B2FA82F519
:101AD00002FA05F4C5F120051EBF22FA05FC44EA0E
:101AE0000C04203556EA044C4FEA144418BF641C19
:101AF0004FF000084FF00009904271EB030C39D30E
:101B0000002919BFB1FA81F701FA07F6B0FA80F798
:101B100000FA07F6C7F120071EBF20FA07FC46EAC5
:101B20000C062037B6FBF4FCA7EB0507103F07F0C7
:101B30001F0BCBF120060CFA0BFB2CFA06F644BF68
:101B4000B3460026202FA4BF5E464FF0000B5BEA91
:101B5000060C08BF4FF0010B19EB0B09ABFB027C25
:101B600048EB0608C01B06FB02CC0BFB03CC71EB59
:101B70000C01C1E70B46024641464846BDE8F08BE2
:101B800013B54FF000004FF00001AFF30080BDE847
:101B90001C4070477CB51D4616460C00009001D0D5
:101BA0002044401E074B7B442A466946019030463C
:101BB00000F001FE05461CB10020694600F00EFE53
:101BC00028467CBD3D0C00000FB4044910B503AAA3
:101BD000029800F027FE10BC5DF814FB38000024CA
:101BE0000FB41CB5084B06AA7B44694600900598C3
:101BF00000F0E1FD04460020694600F0EFFD2046BC
:101C00001CBC5DF814FB0000F10B000070B504462D
:101C100085690068C10601D5302600E02026C0078E
:101C200007D070BDD4E9012130469047206A401C9E
:101C300020626D1EF6D570BD70B5044685690078CA
:101C4000C00707D170BDD4E9012120209047206A48
:101C5000401C20626D1EF6D570BD70B50C46054661
:101C6000012A05D02878800600D5EA69002302E021
:101C7000012305E05B1C934202D2E05C0028F9D10D
:101C8000A869E618C01AA861286A1844286228467C
:101C9000FFF7BCFF04E0D5E9012114F8010B9047E0
:101CA000B442F8D32846FFF7C7FF70BD2DE9F041D5
:101CB0000646002410687529314616A510D000F09C
:101CC000E7FA002802DA404213A507E031688A07E4
:101CD00001D512A502E0490704D511A5012401E0B0
:101CE00000F0DFFA00210A2206F1240709E0B0FB28
:101CF000F2FCB0FBF2F302FB1C00303078541846C3
:101D0000491C0028F3D123462A463046BDE8F0415D
:101D100000F0D0BA000000002D0000002B000000F1
:101D200020000000F0B40D460188090502D5214CC1
:101D30007C4402E01F4C7C440E34002100F1240658
:101D400008E002F00F071209E75D42EA03721B097F
:101D50007754491C52EA0307F3D102780023120793
:101D600004D5702D06D009B1022311342246F0BCEF
:101D700000F0A0BA01231034F8E770B504460D4610
:101D80002146106800F08DFA024629462046BDE83B
:101D900070400023C6E7D21D22F00703D3E90023D9
:101DA000C0E70368126843F0200303600823C3619F
:101DB0000023B7E7F00C06002DE9F05F89460446E2
:101DC0004FF0000ADFF874B1FB44C0F820A02046B1
:101DD000E1688847002874D0252806D0D4E901217D
:101DE0009047206A401C2062F1E700265F462046AB
:101DF000E16888472028054607DB312D05D2781990
:101E000010F8200C08B10643F1E7B00701D526F021
:101E10000406C4F81CA00027C4F818A02A2D09D075
:101E2000284632F0D5FF38B304EB8708303DC8F8B8
:101E3000185019E059F8041B204604EB8702916101
:101E4000E1688847012F054618D1E069002820DAAB
:101E500026F020061DE0D8F8180000EB800005EB06
:101E600040003038C8F818002046E1688847054629
:101E700032F0AEFF0028EED1012F0AD02E2D08D16E
:101E80002046E16888477F1C0546022F46F0200661
:101E9000C4DBA069002803DA404246F00106A061D5
:101EA000F00701D026F010066C2D0BD0682D09D05C
:101EB0004C2D39D06A2D35D0742D35D07A2D33D0B4
:101EC00016E038E0E1682F4620468847B8420546CC
:101ED00009D16C2F26D04FF48060E168064320467C
:101EE0008847054604E06C2F1AD04FF480700643F3
:101EF0000DB3A5F14100192802D8203546F400663B
:101F00004A462946204626604E46FEF77FFA80B1B3
:101F100001280BD0F61D26F0070000F1080956E74E
:101F20004020E4E78020D8E70020D6E706F1040946
:101F30004DE7284652E7206ABDE8F09F800C060076
:101F400040EA010310B59B070FD1042A0DD310C836
:101F500008C9121F9C42F8D020BA19BA884201D988
:101F6000012010BD4FF0FF3010BD1AB1D30703D0D0
:101F7000521C07E0002010BD10F8013B11F8014B86
:101F80001B1B07D110F8013B11F8014B1B1B01D1A2
:101F9000921EF1D1184610BD40EA0103024630B549
:101FA0009B0710D14FF0013400E008C208C91D1B87
:101FB0009D4315EAC41FF8D013F0FF0102F8011B7E
:101FC0000DD01B0AF8E711F8013B002B02F8013B8A
:101FD00005D011F8013B002B02F8013BF3D130BDD5
:101FE00010B5431C02E010F8011B71B18107FAD152
:101FF0004FF0013202C88C1A8C4314EAC211F9D096
:10200000C01A0A0603D0C01E10BDC01A10BD0A04B3
:1020100001D0801E10BD0902FCD0401E10BD032A55
:1020200040F2308010F0030C00F0158011F8013BF5
:10203000BCF1020F624498BF11F801CB00F8013BDC
:1020400038BF11F8013BA2F1040298BF00F801CBA0
:1020500038BF00F8013B11F0030300F06B80083A31
:10206000C0F0088051F8043B083A51F804CBA0E8CE
:102070000810F5E7121D5CBF51F8043B40F8043B23
:10208000AFF30080D20724BF11F8013B11F801CB58
:1020900048BF11F8012B24BF00F8013B00F801CB29
:1020A00048BF00F8012B7047431A28BF9A427FF6B9
:1020B000B6AF032A1044114440F2268010F0030FFB
:1020C0001EBF11F8013D521E00F8013D10F0030F34
:1020D0007FF4F6AF11F0030300F09D84083AC0F0DE
:1020E0000B8051F8043D083A51F804CD40F8043D06
:1020F00040F804CDFFF7F3BF121D5CBF51F8043D5B
:1021000040F8043DAFF30080D20724BF11F8013D31
:1021100011F801CD48BF11F8012C24BF00F8013D92
:1021200000F801CD48BF00F8012C704701B5FFF75A
:1021300076FF01BD10B5203AC0F00B80B1E8185011
:10214000203AA0E81850B1E81850A0E81850BFF4A1
:10215000F5AF5FEA027C24BFB1E81850A0E8185040
:1021600044BF18C918C0BDE810405FEA827C24BF94
:1021700051F8043B40F8043B08BF7047D20728BF22
:1021800031F8023B48BF11F8012B28BF20F8023B71
:1021900048BF00F8012B704701F0FF03114601B55D
:1021A00043EA032242EA024200F061FC01BD02F070
:1021B000FF0343EA032242EA024200F058BC4FF018
:1021C000000200B5134694469646203922BFA0E887
:1021D0000C50A0E80C50B1F12001BFF4F7AF090793
:1021E00028BFA0E80C5048BF0CC05DF804EB890084
:1021F00028BF40F8042B08BF704748BF20F8022BC7
:1022000011F0804F18BF00F8012B70474FF0013CD0
:1022100050F8042B51F8043B9A4215D1A2EB0C0361
:10222000934313EACC130BD150F8042B51F8043B21
:102230009A4209D1A2EB0C03934313EACC13E7D0E3
:102240004FF00000704700BFD01A01BAB1FA81F117
:1022500001F0180122FA01F0CB40C1F12001DBB2FC
:10226000C0B2C01A2CFA01F3D11A914311EAC3117A
:10227000E6D1704770477047704710B500F01CFCFE
:10228000006810BD10B5044600F016FC046010BDD7
:1022900009684A0501D540B27047C905FCD500B2AE
:1022A000704709684A0501D5C0B27047C905FCD519
:1022B00080B270472DE9F0470D4699469246044694
:1022C00000F124080168880604D5E06921F01001B6
:1022D000216000E00120A84201DD471B00E000274B
:1022E000A1697A1902EB0900081AA0612078C006DA
:1022F00002D42046FFF78AFC002608E0D4E9012139
:102300001AF806009047206A401C761C20624E4551
:10231000F4DB2078C0060AD52046FFF777FC06E0FC
:10232000D4E9012130209047206A401C2062381EE9
:10233000A7F10107F4DC07E0D4E9012118F8050052
:102340009047206A401C2062281EA5F10105F3DC9D
:102350002046FFF771FC2078000602D50220BDE878
:10236000F0870120FBE711680268006A530501D578
:1023700008700AE0D30501D5088006E0130603D5EE
:10238000C217C1E9000200E00860012070477047F1
:102390002DE9FF4F0C461E464FF0FF378BB0D2E9B8
:1023A0000001DDF860800A908A46C1F30A5505B93C
:1023B0003D460021084632F095FFBAF1000F00F4C7
:1023C000400005DA00EB80004FF4400101EA5000C4
:1023D0004FEA9059B9F1010F00DDB9460A9850EA69
:1023E0004A000ED044F61050A5F2FF3545432F1495
:1023F000B8F1000F1ED07542291E1EDDC9F1000282
:102400001CE0B8F1010F4FF0000001D0302103E0D3
:10241000F24305E02154401CB042FBDB3046002271
:10242000002121540B99C1F80880C1E900200FB0A8
:10243000BDE8F08FBD1B6D1CDEE74A4600DA69423D
:1024400006A800F057FD06AB93E8070003AB83E84E
:10245000070050460A9900F01EFE8DE80700A0F51F
:1024600000501F3800900398002D0ADD42F21F0132
:102470004A460844002303A90390684601F087F800
:1024800009E0A0F500504A461F38002303A9039035
:10249000684601F091F88DE807000004000C03D0B5
:1024A0004FF0FF30410800E01046B8F1000F03D0B4
:1024B0000022009215461EE0751E05D400F000FBB8
:1024C000303262556D1EF9D5B3460122084302D061
:1024D00000227F1C04E02078302801D100227F1EDA
:1024E000002A099784D01DE0112D07DA00F0E8FAE0
:1024F000303262556D1C50EA0102F5D1084302D01A
:102500000098C8B10EE00021681E05E0235C625C03
:1025100063542254401E491C8142F7DBAB46A81B82
:10252000401E0990002004F80B000B98099AC0F88F
:102530000880C0E9002B7AE711264FF0000857E722
:102540002DE9F04F88460446D21D22F0070191B0D4
:10255000D1E90001CDE90A0130F0E3FC02460B9815
:10256000C00F01D02D2007E02068810701D52B2066
:1025700002E0202101EAC000032A099001D0072AC5
:1025800005DB03464146204600F05EFC0BE1207867
:10259000800601D5E06900E00620B8F1650F8146AC
:1025A00006D0B8F1660F18D0B8F1670F70D131E0DE
:1025B0000020B9F1110F009001DB112301E009F1B6
:1025C00001030AAA01A90CA8FFF7E2FEDDE90C70DD
:1025D000002609F10105834647E001204B460090A3
:1025E0004FF000470AAA01A90CA8FFF7D1FEDDE9C8
:1025F0000DB00C995D46002610B909F101000D18C7
:10260000B9EB050003D4C0F1FF3609F10105A5EBD4
:1026100009002BE0B9F1010F01DA4FF001090020A8
:10262000B9F1110F0090484601DD112300E0034687
:102630000AAA01A90CA8FFF7ABFEDDE90C704D4614
:1026400000268346207800070AD4AB4500DA5D46B1
:1026500001A8012D04DD411911F8011C302907D012
:102660004F4502DA17F1040F04DA012082460FE029
:102670006D1EEEE7002F02DCED1B3E4403E0781CEC
:10268000A84200DD7D1CB81B00F1010A4FF0004795
:102690002078000703D4AA4501DB4FF0FF3A002160
:1026A000B7F1004F0DF143088DF8431024D00220FC
:1026B0002B23002F01DA7F422D230A21021EA0F1D5
:1026C000010000DC5FB197FBF1FC97FBF1F201FB2D
:1026D0001C7C17460CF1300C08F801CDEEE7A8F190
:1026E000010003702188090501D5452100E065211D
:1026F000A0F1010800F8011C09980FA9A1EB080737
:10270000FF1D00B10120411901EBEA70A1693844B5
:10271000081A401EA0612078C00602D42046FFF7A8
:1027200075FA099828B1D4E901219047206A401C24
:1027300020622078C00622D52046FFF767FA1EE007
:10274000002E04DBB34502DD01A8805D00E03020EF
:10275000D4E901219047206A401C2062761CAAF12E
:1027600001005FEA000A0AD100F0A2F9C06801681E
:10277000405CD4E901219047206A401C2062281E59
:10278000A5F10105DCDC07E0D4E9012118F8010B13
:102790009047206A401C2062381EA7F10107F3DC35
:1027A0002046FFF749FA032011B041E601694A1CAF
:1027B00002610878704700B58FB0CDE90131002182
:1027C000059105497944CDE9031011466846FFF7A4
:1027D000F3FA0FB000BD0000E5FFFFFF0A6802F842
:1027E000010B0A607047D1E900239A4202D2531CC0
:1027F0000B601070704710B5436913B1AFF30080E0
:1028000001E0FFF72AFA012010BD127800F124013F
:102810000A7000224A700122EDE711684FF0FF3282
:10282000E9E70000074B70B50D467B44FFF7C3FF97
:102830000446284600F0D0FB10B14FF0FF3070BDC9
:10284000204670BDDF2603002DE9FF5F15468A464E
:102850000446DFF8AC80F8440027D8E900103E4673
:10286000CDE9001010E03AF816106A4602A800F010
:10287000B7FB411C07D02178890603D5E2693918D6
:1028800091420DD80744761C2078800602D5E06975
:10289000B84205DDAE42E6DB3AF816000028E2D188
:1028A000A069C01BA0612046FFF7B0F9D8E900106D
:1028B000CDE90010002017E03AF818106A4602A887
:1028C00000F08EFBB0F1FF3F81460BD000250DF1EB
:1028D000080B05E0D4E901211BF8050090476D1CA9
:1028E0004D45F7D308F10100B0428046E4DB206A91
:1028F000384420622046FFF79FF9BDE8FF9F0000A3
:10290000060206002DE9F0418046D21D22F00702A2
:102910000025D2E90002F52915A614D0011E72F196
:10292000000106DA0023D0EB030063EB020211A6DC
:1029300008E0D8F800108B0701D50FA602E0490780
:1029400001D50EA601251146002408F1240704E054
:1029500000F0B6F830323A55641C50EA0102F7D163
:102960002B46324621464046BDE8F041FFF7A2BC67
:10297000000000002D0000002B00000020000000DF
:1029800030B4002100F1240408E002F00705D20869
:10299000303542EA4372DB086554491C52EA0305AC
:1029A000F3D10468002310A2250707D5A40600D49C
:1029B00021B1C46901230DA2641EC46130BCFFF7BC
:1029C00079BC10B5044621461068FFF76AFC024640
:1029D0002046BDE810400023D2E7D21D22F00701B7
:1029E000D1E90023CCE70000000000003000000027
:1029F000431A28BF9A427FF69DAB104410F0030F94
:102A000011441EBF11F8013D521E00F8013D10F0A7
:102A1000030F7FF4F6AF103AC0F00A8010B531E929
:102A20001850103A20E91850BFF4F9AFBDE8104033
:102A3000530724BF31E9081020E9081044BF51F8BA
:102A4000043D40F8043D12F0030F08BF7047D20761
:102A500028BF31F8023D48BF11F8012C28BF20F8EB
:102A6000023D48BF00F8012C70474FF000020429D6
:102A7000C0F0128010F0030C3FF4A3ABCCF1040CB7
:102A8000BCF1020F18BF00F8012BA8BF20F8022BE1
:102A9000A1EB0C01FFF795BB5FEAC17C24BF00F8F6
:102AA000012B00F8012B48BF00F8012B70470000F4
:102AB00000487047A8F304240048704788F30424B2
:102AC00030B5B0F10A024FEA900E71F100034EEA00
:102AD000817EB0EB0E0061EB91014FEA101E4EEAD1
:102AE000017E10EB0E0041EB11114FEA102E4EEA61
:102AF000016E10EB0E0041EB11214FEA104E4EEA31
:102B0000014E10EB0E0041EB1141401841F1000164
:102B10004FEAD00040EA41704FEAD10110EB800546
:102B20004FEA810444EA907444EB01046D1944EBCC
:102B30000404521BA3414FF0000348BF0A3200D5E2
:102B400030BD401C41F1000130BD00002DE9F04FC7
:102B500004460D46D21D22F0070089B0D0E9009747
:102B60004846394630F0DDF90246F80F01D02D23F2
:102B700007E02068810701D52B2302E0202101EA2C
:102B8000C0038DF820300BB1012000E00020032AA3
:102B9000824601D0072A04DB2946204600F054F97A
:102BA0003FE12078800601D40D2500E0E569C7F3F8
:102BB0000A560D2D49DA00214FEA175B084632F01C
:102BC00091FB002F00F4400007DA00EB80004FF487
:102BD000400100EBD07001EA60008115012901DDA0
:102BE0004FF0FF3100224FEA850CBCF1180F06D3DD
:102BF0001346ACF118004FF08052C24003E04FF48E
:102C0000801323FA0CF30CF10C0CBCF1200F04D34D
:102C1000ACF1200C09FA0CF001E007FA0CF00029E5
:102C20004FF0004801DD18B90FE00ED140450CD33C
:102C300019EB02095F4121B9404502D19F4329EABE
:102C40000209BBEB175F00D0761C2088000502D577
:102C50007B48784402E07A487844193808AA30233F
:102C600002F80A30037C0AF10101002E0AF1020A7F
:102C700053546A4602DC4FF0300101E04FF031015D
:102C80004FF001088DF8001002D0A6F2FF3603E0E5
:102C900059EA470100D06B4E002D02DC217809076C
:102CA00004D54FF002082E218DF80110C4460021F2
:102CB0000BE0C7F303433F01C35C491C6D1E02F8E0
:102CC0000830052908F1010801DA002DF1DC0021A6
:102CD0000CE000EB1973491C1B786D1E082902F8E3
:102CE00008304FEA091908F1010801DA002DF0DC7B
:102CF00021688B0602D516E0A8F10108E04505DD44
:102D000002EB080313F8013C302BF5D0B8F1000FAB
:102D100009DD02EB080313F8013C2E2B03D1090750
:102D200001D4A8F10108002D05DD3E2102F80810AC
:102D30006D1E08F10108407C002E02F8080008F121
:102D4000010804DA2D20764202F8080002E02B2068
:102D500002F808000A214FF47A70864208F101084F
:102D60000BDB96FBF0F3303302F8083096FBF0F300
:102D700008F1010800FB136601E0642E0CDB6420FF
:102D800096FBF0F3303302F8083096FBF0F308F1CD
:102D9000010800FB136601E00A2E06DB96FBF1F04A
:102DA000303002F8080008F1010896FBF1F001FB51
:102DB0001060303002F80800A16908F1010808EB42
:102DC000050202EB0A00081AA0612078C00602D4AE
:102DD0002046FEF71BFF216A08AE01EB0A002062C5
:102DE00004E0D4E9012116F8010B9047BAF1010A79
:102DF000F7D22078C00602D52046FEF707FF6E46C0
:102E000009E016F8010B3E280FD0D4E901219047C4
:102E1000206A401C2062B8F10108F2D22046FEF779
:102E20000BFF09B00320BDE8F08F206A2844206220
:102E300003E0D4E90121302090476D1EEBD3F8E781
:102E400025FE050002FCFFFF2DE9F0411F46044668
:102E500003260168072A01F4006004DB08B116A507
:102E600005E016A503E008B115A500E015A521F0C1
:102E700010002060A069C01EA0610FB1401EA061BB
:102E80002046FEF7C3FE4FB1D4E9012138469047F2
:102E9000206A401C2062C01C206206E0206AFAE71B
:102EA000D4E9012115F8010B9047761EF8D220468F
:102EB000FEF7C2FEBDE8F0814E414E006E616E002D
:102EC000494E4600696E660010B5436913B1AFF311
:102ED000008001E0FFF7B8FC012010BD128800F16E
:102EE000240182840022C2840122EDE711684FF0A0
:102EF000FF32E9E72DE9F047814616468AB03548AA
:102F000078440DC88DE80D0032487844801C03AC2D
:102F10000DC884E80D0041F69B300844372190FB32
:102F2000F1F290FBF1F5A5F1800501FB12041B3CC9
:102F300002D56442012000E00020DFF898A080461E
:102F40000027FA44AAF1BE0A0EE0E0070AD0324692
:102F5000684607EB470101230AEB810100F02CFBD7
:102F60008DE8070064107F1C002CEED1194F7F44C0
:102F7000AE3F19E0E80715D007EB04100DF1180A71
:102F800090E80E008AE80E00C068F04201D198195E
:102F900008903246012306A903A800F00DFB03ABFD
:102FA00083E807006D10641C002DE3D14FF001038E
:102FB00032466946B8F1000F03A802D000F0E7FAE4
:102FC00001E000F0F9FAC9E90001C9F808200AB0E7
:102FD000BDE8F08708FC0500007B00F0800070472A
:102FE00070B516460C46054600F044F8036893F8A1
:102FF0000101012806D0FF2C0FD8185D68B101200F
:103000002C7070BDD3F807013246214603F2071336
:1030100003442846BDE8704018474FF0FF3070BDAC
:103020000048704788F304247546FFF7F9FFAE4661
:1030300005006946534620F00700854618B020B5C4
:10304000FDF76EFABDE820404FF000064FF0000794
:103050004FF000084FF0000B21F00701AC46ACE840
:10306000C009ACE8C009ACE8C009ACE8C0098D46AD
:103070007047000010B5FFF71BFD001D10BD00BF1D
:103080001122030010B50446AFF300802046BDE8CE
:103090001040FDF720BA5FEA400C08BF91F0000F26
:1030A0004FEA8C234FEAC12243EA51514FEA1C50A8
:1030B00018BF00F5F0404FEA300018BF41F0004162
:1030C0005FEA6C5C00F02980BCF1FF3F08BF40F074
:1030D00080407047130C06BF12044FF0100C4FF0E5
:1030E000000C130E04BF12020CF1080C130F04BFE6
:1030F00012010CF1040C930F04BF92000CF1020CAE
:10310000D30F04BF52000CF1010C11464FF0000226
:10311000A0F11F00A0EB0C00704711F0004F08BF9A
:10312000704731F000413FF4D5AF0B0C06BF0904E6
:103130004FF0100C4FF0000C0B0E04BF09020CF105
:10314000080C0B0F04BF09010CF1040C8B0F04BF1A
:1031500089000CF1020CCB0F04BF49000CF1010CEB
:10316000CCF12003A0EB0C0022FA03F302FA0CF2DC
:1031700041EA030100F10100704720F07F4C80EA32
:10318000030023F07F47ACEB070303F57C5300F00B
:10319000004003F1FF032DE980494FEA154B09B4C4
:1031A0004FEA144325EA0B4E24EA03480FF20426A3
:1031B00006EB132749083E785FEA320203FB0667F5
:1031C000C7F5000707FB06F64FEA54374FEAD64625
:1031D00006F1020607FB066CCCF1005C4FEA1C47C7
:1031E0002CEA074C07FB06F40CFB06F504EB15462E
:1031F0004FEA961634BF00204FF000404FEAD13717
:1032000006FB07FC4FEA1C4C0CFB0BF7D21B03FB25
:103210000CF761EB07010CFB0EF7B0EB074072EB0C
:1032200017420CFB08F734BFA2EB0742B2EB074290
:1032300061EB17414FEA0C444FEA910706FB07FC8C
:103240004FEA1C4C0CFB0BF7B0EBC74072EB57324C
:1032500003FB0CF734BFA2EBC742B2EBC74261EBF2
:1032600057310CFB0EF7B0EBC70072EB57720CFB3B
:1032700008F734BFA2EBC702B2EBC70261EB57718C
:10328000039F4FEA816141EA921104EBCC044FEABB
:10329000D1374FEA826206FB07FC42EA90124FEAFE
:1032A00080604FEA1C4C0CFB0BF7D21B03FB0CF7A6
:1032B00061EB07010CFB0EF7B0EB074072EB174216
:1032C0000CFB08F734BFA2EB0742B2EB074261EBFD
:1032D00017414FEA8C554FEA910704EB9C2406FBFB
:1032E00007FC4FEA1C4C0CFB0BF7B0EBC74072EB32
:1032F000573203FB0CF734BFA2EBC742B2EBC74215
:1033000061EB57310CFB0EF7B0EBC70072EB577255
:103310000CFB08F734BFA2EBC702B2EBC70261EBAC
:10332000577115EB4C254FEA816141EA92114FEA42
:1033300082624FEAD13742EA901206FB07FC44F161
:1033400000044FEA80604FEA1C4C0CFB0BF7D21BC9
:1033500003FB0CF761EB07010CFB0EF7B0EB07402A
:1033600072EB17420CFB08F734BFA2EB0742B2EB3B
:10337000074261EB174115EB1C154FEA813141EA19
:1033800092414FEA823242EA90424FEA80304FEA5D
:103390000C7644F1000448EA03434EEA0B484FF030
:1033A000000EB2EB080C71EB030724BF62463946EE
:1033B0004EEB0E0E4FF0000B0018524149414BEB03
:1033C0000B0BB2EB080C71EB03077BF1000B24BF76
:1033D000624639464EEB0E0E4FF0000B001852417C
:1033E00049414BEB0B0BB2EB080C71EB03077BF184
:1033F000000B24BF624639464EEB0E0E51EA02071F
:1034000018BF46F0010616EB0E7655F1000254F196
:10341000000103D5BDE88901BDE80088BDE8890148
:10342000BDE80048B619524141EB0101A3F1010387
:10343000704780807F7E7D7C7B7A79787776767521
:103440007473727171706F6E6E6D6C6C6B6A6A6999
:103450006868676666656464636362616160605F33
:103460005F5E5E5D5D5C5C5B5B5A5A5959585857AC
:103470005756565555555454535352525251515014
:1034800050504F4F4F4E4E4D4D4D4C4C4C4B4B4B67
:103490004A4A4A49494948484847474747464646AD
:1034A00045454544444444434343434242424241E8
:1034B0004141002B9C4630D477002BD01CB54FEAFD
:1034C000370703B44FF010004FF01001BAF1000FAE
:1034D00006D0BCF1000FDCBF40F0080040F008014E
:1034E00031F000FF0FBCBDE810400BF1010BBBF148
:1034F000010F08BF5FEA170722BF12F1010211F1A5
:1035000001014FF0004143F1000300F0004043EAA5
:1035100000007047F9D35708D0E746EA064613F192
:10352000400F4FEA16461FDD13F1200FDFBF164391
:103530000A46002120335B42BED0C3F1200746EA91
:10354000064602FA07F74FEA164646EA0706C3F1AF
:10355000200722FA03F201FA07F721FA03F14FF0EC
:10356000000342EA0702A7E746EA020646EA0646E1
:103570004FEA164646EA0106BCBF46EA0646360C46
:103580004FF000034FF000024FF0000194E72DE9E7
:10359000804C9A46934670B491E8380007C831EAE7
:1035A000400C48BF34EA430C03D5FFF7E6FDFFF7B4
:1035B00080FFF0BCBDE8008C2DE9804C9A46934614
:1035C00070B491E8380007C810F0804F08BF13F0BE
:1035D000804F03D100F005F8FFF76BFFF0BCBDE8AA
:1035E000008C20F07F4780EA030023F07F4C07EB3C
:1035F0000C03A3F57C5300F00040A3F1FE0392F00E
:10360000000F00F0B38095F0000F00F077802DE9F7
:1036100001494FEA11404FEA144621EA004800FBF5
:1036200006FC24EA064708FB06F607FB08F800FB41
:1036300007F718EB06484CEB164C4FEA124B18EB09
:1036400007484FEA15464CEB174022EA0B4E0BFB9E
:1036500006FC25EA06470EFB06F607FB0EFE0BFBF3
:1036600007F71EEB064E4CEB164C4FF000061EEB18
:10367000074E4CEB174B18EB0B0840F1000018EB12
:103680000E0B58EB000840F100008F1A4FF00001BC
:103690003CBFC943661B14BFB5EB040C00213CBF03
:1036A000C943F61B4FEA17444EEA8E0E27EA04453B
:1036B0004FEA1C4704FB07622CEA074C05FB07F79F
:1036C0000CFB05F604FB0CFC16EB074642EB17421D
:1036D00016EB0C4642EB1C421BEB060658EB0202B3
:1036E000414146EA9E0601D5BDE80189B61952411D
:1036F00041EB0101A3F10103BDE801894FEA144543
:103700004FEA114724EA054621EA074C05FB07F476
:1037100006FB07F70CFB06F105FB0CFC11EB074160
:1037200044EB17444FEA124711EB0C4144EB1C44A5
:1037300022EA074C05FB07F206FB07F70CFB06F62F
:1037400005FB0CFC16EB074642EB174216EB0C464A
:1037500042EB1C456A1854F1000148BF7047B61986
:10376000524141EB0101A3F10103704795F0000FB5
:1037700037D04FEA11424FEA144721EA024624EAC1
:10378000074C02FB07F106FB07F70CFB06F402FBF4
:103790000CFC14EB074441EB17414FEA154714EBBF
:1037A0000C4441EB1C4125EA074C02FB07F506FBE4
:1037B00007F70CFB06F602FB0CFC16EB074645EB85
:1037C000174516EB0C4645EB1C42121951F100014E
:1037D00048BF7047B619524141EB0101A3F1010303
:1037E00070474FEA14454FEA114724EA054621EA9B
:1037F000074C05FB07F106FB07F70CFB06F24FF041
:10380000000605FB0CFC12EB074241EB174112EBE3
:103810000C4251EB1C4148BF7047921841EB01012B
:10382000A3F1010370470000EFF3098141B1F1EE0C
:10383000101A40F8041D20ED200A3E490A68106065
:103840007047B0EC200A02C8E1EE101A3A490A6843
:103850001060704772B64EF62250CEF2000040F271
:10386000FF01C0F2000101704FF0000080F30988F1
:1038700018F0B6F840F2BC10C2F20040016881F3C3
:10388000088840F25210C2F2004040F25311C2F2D6
:1038900000410A78027040F2B415C2F2004540F2CD
:1038A000B811C2F200410A682A60106880F30988E2
:1038B000EFF3148040F0020080F31488BFF36F8FA1
:1038C000BDE8F00F0FBCBDE8005006BC62B608476B
:1038D0001A484FF080510160704718484FF08051EE
:1038E0000160704772B6EFF3098020E9F00F40F2F3
:1038F000B415C2F200452E683060744618F070F8B6
:1039000040F25210C2F2004040F25311C2F20041A4
:103910000A78027040F2B811C2F200410A682A60C7
:1039200044F0F40E1068B0E8F00F80F3098862B636
:1039300070470000B4010024B801002404ED00E049
:1039400000B587B01A481B4908604FF44030486002
:103950000821184881600021C16004210161002113
:103960000175417501218161002101770121016209
:1039700080214162C90081620321C162012180F876
:10398000381009030163002180F839100DF052FC52
:10399000132000900120019002200290002003904B
:1039A00004900590694603480CF05CFD07B000BD2B
:1039B00000200240B016002400B587B01D481E4903
:1039C00008604FF44030486008211B4881600021A6
:1039D000C1600421016100210175012141758161EE
:1039E00000210177016201214162002181620121F0
:1039F00080F8381009030163002180F83910C16292
:103A00000DF018FC03200090012001900520029089
:103A10000020039004900590694607480CF022FDB1
:103A200005480EF061F80022114603480CF07AFBBD
:103A300007B000BD002102401417002400B587B074
:103A40002348244908604FF4403048600821214849
:103A500081600021C160042101610021017541756F
:103A600001218161002101770121016280214162F0
:103A7000C90081620321C162012180F83810090365
:103A80000163002180F839100DF0D4FB0220009072
:103A900001200190022002900020039004900590E4
:103AA00069460C480CF0DEFC01200B490860C0059B
:103AB0004860022088600120087340F6FF700861AA
:103AC0000020486103480CF091FB07B000BD0000E6
:103AD00000600258781700246818002410B50248C6
:103AE0000DF0AAF910BD0000781700242DE9F0416F
:103AF00007460C4615461E4606480EF04DF9256150
:103B00006661214638460CF071FB02480DF0ECFF6F
:103B1000BDE8F081781700242DE9F04104460D46F8
:103B20000027B84600262068806800F00C0008B125
:103B3000012000E0002000286CD02068C06800F060
:103B40000070F8B1607D01281CD1207D012819D1B9
:103B50000C250EE0304886420AD3606D40F010001C
:103B60006065A06D40F00100A0650120BDE8F08116
:103B7000761C20680068C0F380100028EAD040203E
:103B800021680860602D0FD02068806800F0040074
:103B900050B12068806800F0020028B92068806871
:103BA00040F01000216888600C2D0FD020688068DC
:103BB00000F0080050B12068806800F0020028B9C9
:103BC0002068806840F0200021688860602D03D064
:103BD0006C2D03D10C2703E0082701E0042700BF68
:103BE00000BF0FF035F880460FE00FF031F8A0EB82
:103BF0000800052809D9606D40F010006065A06DCF
:103C000040F00100A0650120B0E7206880683840DE
:103C10000028EAD10020A9E700DC0C0070B50546B9
:103C2000AC6B606D00F05000A0BB606D40F40070A4
:103C300060652068006800F00800B0B12068C068C6
:103C400000F4406010BB2068C06800F40050E8B980
:103C5000606D20F480706065606D00F48050A8B9DC
:103C6000606D40F00100606510E02068C06800F001
:103C7000030058B9606D20F480706065606D00F4D9
:103C8000805018B9606D40F00100606520460CF06E
:103C900055FF07E0FFE7606D00F0100010B120460F
:103CA0000DF0C4F870BD70B50546AC6B606D40F0AA
:103CB00040006065A06D40F00400A06520460DF056
:103CC000B5F870BD70B50446A56B28460CF037FFFB
:103CD00070BD000010B506480CF032FF05480CF02E
:103CE0002FFF054811F0EAFD044811F0E7FD10BD73
:103CF000B016002478170024DC1700241C180024B8
:103D000010B5FFF71DFEFFF799FE1EF001FE4FF400
:103D10002052094909480DF095FF4FF420520849F7
:103D200008480DF08FFF084811F05EFE0748008834
:103D300008B11FF0FBFD10BD70190024B01600245F
:103D40007069002478170024DC170024D0020024B6
:103D500070B5044600252068806800F00300012843
:103D600006D12068006800F0010008B1012000E0E1
:103D7000002080B32068806800F00D00012800D189
:103D800000E0002050B100BF2068806840F00200D1
:103D90002168886003202168086009E0606D40F0B8
:103DA00010006065A06D40F00100A065012070BDAD
:103DB0000EF04EFF05460FE00EF04AFF401B0228B2
:103DC0000AD9606D40F010006065A06D40F0010000
:103DD000A0650120EBE705E02068806800F00100A5
:103DE0000028E9D10020E2E770B5044600252068EC
:103DF000806800F00300012806D12068006800F008
:103E0000010008B1012000E0002088BB2068806824
:103E10001C49084008B9012000E0002048B9606D45
:103E200040F010006065A06D40F00100A065012029
:103E300070BD2068806840F00100216888600EF045
:103E400007FF054615E02068806840F00100216802
:103E500088600EF0FDFE401B02280AD9606D40F01C
:103E600010006065A06D40F00100A0650120DFE753
:103E700005E02068006800F001000028E3D0002081
:103E8000D6E700003F00008070B50025002400BF89
:103E90000EE010480DF028FE0A210E480DF04EFDF0
:103EA0000C480CF0C4FF0C4921F81400601CC4B28B
:103EB000282CEEDB002405E0074830F81400054408
:103EC000601CC4B2282CF7DB2820B5FBF0F5A8B2A3
:103ED00070BD000014170024C8EF042410B512F0C0
:103EE0008DF910BD2DE9F04107460C46002600254E
:103EF00009E036023919491B491E88B200F008F85A
:103F00000644681CC5B2A542F3DB3046BDE8F0812B
:103F100070B50446002612F03BFA2546E11704EB83
:103F200011610912A02202EB4101C8B212F0F2F9AC
:103F300012F082FAE11704EB11610912A4EB0121DE
:103F4000C8B212F0E7F912F077FA12F021FAA120C4
:103F500012F0E0F912F070FA002012F0A5F906460E
:103F600012F040FA304670BD2DE9F04105460E468C
:103F70001746002409E0E20026FA02F2D1B22A191B
:103F800090B200F006F8601CC4B2BC42F3DBBDE89E
:103F9000F08170B504460E4612F0FAF92546E11795
:103FA00004EB11610912A02202EB4101C8B212F028
:103FB000B1F912F041FAE11704EB11610912A4EB17
:103FC0000121C8B212F0A6F912F036FA304612F00A
:103FD000A1F912F031FA12F005FA0A2030F030FFA0
:103FE00070BD002800DC4042704700001FB54FF450
:103FF000006600202549086031462548FCF73AFE56
:1040000042E003A802AB01AA00210090084617F085
:1040100091F80446BDF80C00002835D125462868E3
:10402000B0F5005F27D0B0F5804F1FD0B0F5004F3E
:1040300024D118480068C0F5205017490968088342
:104040001648C06AC0F5205015490968088314490C
:104050000968088B02F0F8F90F490968088B01F02C
:1040600051FF02F001F901F0C1FD0CE0FFF70CFF78
:104070000C49088007E005F020F804E00AA0296850
:1040800000F080F900BF00BFBBE70000240000245F
:10409000981300242C040240E00200240000024097
:1040A000E4020024740300242A7563526563656981
:1040B0007665203D2025780D0A00000008F0CAFE34
:1040C000012021F0D9FC01E015F0B4FBFCE77047BA
:1040D00030B58BB00446002500BF00F037FE0AA8BB
:1040E00016F026FD00F0A0FE0AAA0121084616F0EF
:1040F00081FA00BF7548006840F4002073490860E9
:104100000846006800F40020099000BF00BF00BF0F
:1041100000BF00BFFCF71EFA054600BF00F0B0FE6E
:1041200000BF6B480078401C6949087000BF00F070
:10413000C1FE00BF2846FCF711FA00BF00BF00BF58
:104140000AAB012263A1674816F0D8FA0AAB002235
:1041500065A1684816F0D2FA0AA807210022059244
:10416000CDE90621089011464FF480626620624B2B
:104170001B68CDE90130CDE903213C2000235F4AD3
:104180005FA100906248006816F05CFD0AA8072154
:1041900000220592CDE90621089010464FF4807167
:1041A00019225C4BCDE90132CDE903100620002332
:1041B000594A5AA100905C4816F044FD0AA807210C
:1041C00000220592CDE90621089010464FF4807137
:1041D0001922564BCDE90132CDE903100720002307
:1041E000534A54A10090564816F02CFD0AA8072106
:1041F00000220592CDE90621089005204FF4806148
:104200006622504B1B68CDE90132CDE90310022034
:1042100000234D4A4DA100905048006816F012FD51
:104220000AA8072100220592CDE90621089011462F
:104230004FF4007033224A4B1B68CDE90132CDE9BF
:10424000030104200023474A47A100904A48006820
:1042500016F0F8FC0AA94948006819F061FE00BF91
:1042600000BF00BFFCF776F9054600BF00F008FE6E
:1042700000BF17480078401E1549087008460078AE
:10428000C0B93F48008800280BDD00BF00F012FED7
:1042900000BF2846FCF762F900BF00BF18F026FEF9
:1042A00011E000BF00F006FE00BF2846FCF756F9FB
:1042B00000BF08E000BF00F0FDFD00BF2846FCF78E
:1042C0004DF900BF00BF00BF0BB030BDE044025845
:1042D000580100244170705072696E746653656DA8
:1042E000700000008013002453454D5F53594E4326
:1042F00048000000681300241C000024BD40000892
:10430000456D77696E64656D6F207461736B000035
:1043100018000024BC0A002401520308546F75637E
:1043200068207461736B0000100A0024680F002479
:10433000294F03084C656430207461736B000000E2
:10434000BC0E002404000024ED3F000841707020E2
:104350005461736B2044534F0000000000000024A0
:1043600014000024CF400008417070205461736B2A
:10437000204D736750726F00100000240800002465
:10438000380100240FB400B599B01BA80390512147
:1043900004A8039B1A9AFDF7FDFB0020039002A8D6
:1043A00000231A4619460090074816F007FA04A998
:1043B00006A0FDF709FC02AA0021034816F002FB43
:1043C00019B05DF814FB0000801300242573000071
:1043D00010B510F04BFB0446204610BD38B54568BB
:1043E00004460146284620F07CF900282BD020689E
:1043F000304A11280DD006DC0B2825D00E2833D0EA
:104400000F2852D112E0282849D0B0F5107F4CD1A6
:1044100008E09268002A16D02146284601B0BDE87F
:1044200030401047214628465268F7E7284607F0F3
:1044300075F90090406E0468684607F0DFF9002CBB
:1044400001D02846A04738BD284607F067F90090FC
:10445000683007F0B9F8009803216C3007F0C2F813
:10446000684607F0CBF920E0E168486809680D2943
:1044700002D0202913D105E0002810DD28462BF0BA
:10448000DFFC06E0002804DD2846BDE838402BF0BC
:10449000D7BC2846BDE8384002212BF0E7BCE068D5
:1044A00018B90021284600F0D4F92046BDE838406C
:1044B00020F092BCC005002470B586B00024DDE970
:1044C0000A56CDE90046CDE90245049400F024F8EF
:1044D00006B070BDF0B5044685B08069B4F90850E7
:1044E000668A0027CDE90265CDE900170490B4F98A
:1044F0000C00B4F91060C118B4F90A00B4F90E50F8
:10450000104433462A4600F007F80546616800F07B
:10451000A9F905B02846F0BD2DE9F04F85B01F463A
:10452000DDE911B4DDE90E5690468946824608F071
:10453000CFFC16484C34CDE90204CDE900563B4689
:1045400042464946504620F08FFB040018D007F041
:10455000E5F810225946049020F0ECF90498302236
:104560000B493430FDF7E6FD094D04990C3D2868F0
:10457000486604A807F042F9286841682046884741
:104580000AF00EFB05B02046BDE8F08FDD430008C1
:10459000CC050024F0B5044680688B4989B051F8F9
:1045A0002050606800287DD0052804D006287AD0E5
:1045B000122879D1AEE0E86900284FD095E80E00C6
:1045C0008DE80F0004F110010FC90BF01BF9002654
:1045D00055F8260009F0E9FAA169E8690A1A216983
:1045E00001446069304408F05BF8A169E8690A1A7F
:1045F00021690144E069801B08F052F8E169E8692B
:104600000A1A616901442069304408F071F9E169CE
:10461000E8690A1A61690144A069801B08F068F919
:10462000761C022ED4DBA86809F0BFFAE069E969BC
:104630006669431A206942183144801C521E08F0F2
:10464000F3F9E169E869A2690B1A61690144101A7A
:10465000401C921E08F0E8F9EE6913E05FF00006D6
:1046600055F8260009F0A1FAE069831BA069821BB6
:10467000606981192069304408F0C8F8761C022E60
:10468000EEDB0226D5E90301CDE900016169E069AD
:1046900008444310A069891C821B2069304407F03C
:1046A00077FF02E089E012E08AE0D5E90501CDE973
:1046B0000001E36960690121184401EB6001A06910
:1046C0009B1E821B2069304407F062FF78E020685F
:1046D00007F024F80490206821F0BEFF40B1A068E4
:1046E00008B1002008E00498006F28B1012003E021
:1046F0000498406F00B10220049901EB8000C56E60
:1047000004A807F07BF800231A462846216807F022
:1047100045FC55E0206807F001F80490866EEEB382
:10472000B0F95C70A168D1B3032942D05FF00001F9
:1047300000EB8101406D0C6C09F068FA204609F02D
:1047400034FA05A808F092FABDF81410A88B0144B9
:10475000ADF81410BDF81810081AADF81800BDF81F
:104760001600801CADF81600BDF81A00801EADF8CA
:104770001A000498B0F96020B0F95E1005A809F09D
:1047800049F804A807F03AF8022009F0A9FB3046DE
:1047900006F0C4FF3A4605A9079001E00BE006E0E9
:1047A00007F02CFD0DF11C0007F028F808E00121AE
:1047B000BEE70221BCE704A8F6E7206821F0A4FBCD
:1047C00009B00020F0BD0000D82006082DE9FC410A
:1047D00015460E46040023D008F07AFB204606F06A
:1047E0009DFF0190806E0027A0B106F097FF00901A
:1047F000FDF7F6FB0446681E844200DD0446094BC3
:10480000224630461B6800999847684606F0F6FF36
:10481000375500E0377001A806F0F0FF0AF0C0F944
:10482000BDE8FC819807002438B505004FF000046E
:104830000DD008F04DFB284606F070FF0090408E2A
:10484000C0F30024684606F0D9FF0AF0A9F9204613
:1048500038BD4FF480720029114601D01FF0D6BF39
:104860001FF026BF2DE9FF410E4605004FF0010461
:1048700021D008F02DFB284606F050FF0190876EEE
:1048800001A8009706F0BAFF314668460BF00AFB14
:1048900078B100980024B84208D0284606F03EFFC0
:1048A00001900099816601A806F0A8FF284621F032
:1048B00037F80AF075F904B02046BDE8F08100BF72
:1048C000FEE7F8B544680546014620461FF009FF9B
:1048D000002836D028680B2839D00E2805D00F289C
:1048E00021D0B0F5107F3CD12CE0204606F016FF19
:1048F000009010F8746F4778684606F07FFF2046F6
:1049000021F0AAFE10B3E8684168002929DD00689B
:10491000202826D17F1CB7FBF6F006FB107120463D
:1049200000F05CF91DE02546204606F0F7FE0090F9
:10493000006F0468684606F061FF002C01D028462D
:10494000A047F8BD294620462BF0A9FE09E02046E5
:1049500006F0E4FE0090783006F036FE684606F079
:104960004DFF2846BDE8F84020F036BAF0B585B0D6
:10497000B0F90850468A84690296CDE903540027AD
:10498000CDE90017B0F90C10B0F91050B0F90E4095
:10499000B0F90A00194410442B46224600F002F8F0
:1049A00005B0F0BD2DE9F04F85B01D46DDE90E974D
:1049B00016468A468346DDF8488008F089FA244C7A
:1049C0000EB135B10AE0206880680068804706466D
:1049D000F7E7206880680068804705461C481D4945
:1049E000001DC068884201D147F0010708F154005A
:1049F000194ACDE90220CDE900972B4632465146AF
:104A0000584620F031F905001CD006F087FE102230
:104A1000049011991FF08EFF0D4904983C22091D46
:104A20003430FDF787FB049821680167022180F884
:104A300074100F21C16704A806F0E0FE20684168E9
:104A4000284688470AF0ACF805B02846BDE8F08F44
:104A5000FC050024785634FFC34800082DE9FF47C1
:104A60000446006810B121F0F7FD68B1002231481A
:104A700050F8221060680A2841D007DCF0B30628FD
:104A80000DD0072854D106E00122F0E712280AD001
:104A900019284DD137E0204623F0CBF848E02046D6
:104AA00025F06AFE44E0206806F038FE0290B0F976
:104AB000548090F85650476C466B02A806F09EFE54
:104AC000206800F050F88146684620F099FABDF859
:104AD000001009EB05000844ADF80000246A3046D8
:104AE00009F094F8022009F0FBF9384609F05DF866
:104AF00042466946204607F081FB19E007E0204660
:104B000026F0A8FB14E0886904B0BDE8F0872068AF
:104B100021F0FAF9206806F001FE0390B0F90610C2
:104B2000B0F90220891A491CC16703A806F066FE85
:104B30000020E9E75021060838B505004FF00004D1
:104B40000FD008F0C5F9284606F0E8FD009018B12E
:104B5000046C284620F0E4FE684606F04FFE0AF09A
:104B60001FF8204638BD38B5044608F0B1F9204694
:104B700006F0D4FD0090C46F684606F03FFE0AF0D0
:104B80000FF8204638BD38B505004FF000040CD0B2
:104B900008F09EF9284606F0C1FD009090F8754097
:104BA000684606F02BFE09F0FBFF204638BD38B5FD
:104BB0000C46050011D008F08BF9284606F0AEFD32
:104BC0000090416BA14203D04463284620F0A8FE28
:104BD000684606F013FE09F0E3FF38BD38B50C4611
:104BE00005001BD008F074F9284606F097FD0090E8
:104BF00090F87410A1420CD980F87540684606F010
:104C0000FDFD284620F08CFE0521284620F051FFAE
:104C100002E0684606F0F2FD09F0C2FF38BDFEB5BD
:104C20000D46040022D0002D20D008F051F9204676
:104C300006F074FD0190866F01A8009606F0DEFD77
:104C4000294668460BF02EF970B10098B04208D0A2
:104C5000204606F063FD01900099816701A806F0E7
:104C6000CDFD204620F05CFE09F09AFFFEBD38B570
:104C70000C46050011D008F02BF9284606F04EFD31
:104C80000090416CA14203D04464284620F048FEC5
:104C9000684606F0B3FD09F083FF38BD00B589B062
:104CA00024216846FDF78BFA19200190034800681B
:104CB000806841686846884709B000BDFC0500244B
:104CC0007CB5214C0546216831F8220F4A8D1044ED
:104CD00008804888CA8D10444880284607F0A0FF05
:104CE0002168498CADF80010461828460AF056FF96
:104CF0003044401EADF8040008F018F82168898C93
:104D0000ADF802100844401EADF80600684621F0D8
:104D10002FFB04E0284604F0A9FB21F0AFFA00289D
:104D2000F8D10A2D04D0BDF804002168401C488445
:104D3000206830F8221F428D891A01804188C28D77
:104D4000891A41807CBD00009004002410B500F059
:104D5000FBF800F003F800F0F3F810BD70B5002682
:104D60000020184908801849088018490860184927
:104D7000086018490860184908601849086000244C
:104D800000BFFBF7E7FB064600BF00250BE0002055
:104D90001049086000F074F800F08CF80D480068C5
:104DA0000444681C85B2002DF1D00C48046000203A
:104DB000084908600849086000BF3046FBF7CEFB91
:104DC00000BF70BDE4000024E6000024E8000024D9
:104DD000EC000024F4000024F8000024F00000247B
:104DE00001460846044A1268904203D9024A1268F2
:104DF000801A00E000207047F000002470B5002504
:104E000000BFFBF7A7FB054600BF0648046800BFCC
:104E10002846FBF7A3FB00BF2046FFF7E1FF06464D
:104E2000304670BDF400002470B50025FFF7E6FFA2
:104E3000044600BFFBF78EFB054600BF0020044977
:104E4000086000BF2846FBF789FB00BF204670BD05
:104E5000F400002470B5002500BFFBF77BFB05467E
:104E600000BF0648046800BF2846FBF777FB00BF79
:104E70002046FFF7B5FF0646304670BDF800002417
:104E800010B509480088401C074908800748008879
:104E900018B900F083F80649086004480088401CEF
:104EA0000249088010BD0000E4000024E600002450
:104EB000E800002410B50F480088401E0D49088006
:104EC00008460088A0B900F069F80B490860084658
:104ED00000680A490968441A09480068A04201D2DA
:104EE0000748046007480068A04201D205480460F2
:104EF00010BD0000E6000024EC000024E8000024BF
:104F0000F4000024F800002410B5002400BF00BF06
:104F1000FBF720FB044600BFFFF7B2FF00BF1021E4
:104F2000064814F0ADFD00BFFFF7C4FF00BF2046E8
:104F3000FBF714FB00BF00BF10BD0000800C042471
:104F400010B5FFF7E1FF10BD10B500200249086061
:104F500000F00AF810BD0000E000002401490860DC
:104F600070470000E000002410B5FFF731FA044656
:104F70000848006840F08070064908600020064933
:104F800048600846006840F0010008602046FFF7CE
:104F9000E5FF10BDFCED00E0001000E001494868AD
:104FA00070470000001000E010B502202FF082FFD3
:104FB00010BD000010B50022402112480DF042FE45
:104FC0001148006820F0C0000F49086008460068DA
:104FD00040F040000860FFF7E7FF002208210A4880
:104FE0000DF030FEFFF7E0FF0122402105480DF0F3
:104FF00029FEFFF7D9FF0022402102480DF022FED2
:1050000010BD0000001C02580020025800B587B0F7
:1050100000BF1648006840F0800014490860084648
:10502000006800F08000019000BF00BF00BF08468C
:10503000006840F4807008600846006800F48070E2
:10504000019000BF00BF4020029001200390049017
:105050000320059002A906480DF0C2FC082002902A
:1050600002A904480DF0BCFC07B000BDE0440258A2
:10507000001C02580020025810B50022402112489E
:105080000DF0E0FD1148006820F0C0000F490860F5
:105090000846006840F040000860FFF785FF0122E5
:1050A00008210A480DF0CEFDFFF77EFF01224021C6
:1050B00005480DF0C7FDFFF777FF002240210248A9
:1050C0000DF0C0FD10BD0000001C02580020025869
:1050D00070B5054600241748006820F0C000154947
:1050E00008600846006808601E202FF0E3FE0026D6
:1050F00016E00022402110480DF0A4FDFFF754FFF8
:10510000012240210C480DF09DFD6006040E08218F
:1051100008480DF08BFD08B1601CC4B2701CC6B20B
:10512000082EE6DB15B9FFF7A7FF01E0FFF742FF06
:10513000204670BD00200258001C025870B504467D
:105140001A48006820F0C000184908600846006846
:1051500040F0400008600022402115480DF072FD2B
:10516000FFF722FF00251EE0E00928B101220821F7
:105170000E480DF067FD04E0002208210B480DF0F9
:1051800061FD6006040E0122402109480DF05AFD20
:10519000FFF70AFF0022402105480DF053FDFFF7FD
:1051A00003FF681CC5B2082DDEDB70BD002002586D
:1051B000001C025810B51248006820F0C0001049C9
:1051C00008600846006840F040000860012208219D
:1051D0000B480DF037FD012240210A480DF032FD49
:1051E0001E202FF067FE0022082105480DF02AFD41
:1051F000FFF7DAFE0022402102480DF023FD10BD2A
:1052000000200258001C025810B51048006820F019
:10521000C0000E4908600846006840F04000086081
:10522000012240210A480DF00DFD1E202FF042FE04
:105230000022082105480DF005FDFFF7B5FE01220B
:10524000082102480DF0FEFC10BD000000200258AD
:10525000001C025810B500241648006820F0C00059
:1052600014490860084600680860012208211148B6
:105270000DF0E8FC012240210F480DF0E3FCFFF7A0
:1052800093FE09E0601CC4B2FA2C03DDFFF7BCFFFB
:10529000012010BDFFF788FE082106480DF0C6FC6E
:1052A0000028EFD10022402103480DF0CBFC002064
:1052B000EFE7000000200258001C02582DE9FE43D1
:1052C00004460E46154620460AF012FF0746C4EB78
:1052D000C400144951F8200007FB0608C4EBC400C1
:1052E00051F8200007FB05090021C4EBC4000D4B59
:1052F00003EB80000069CDE90001C4EBC40002911A
:10530000194601EB80004A464146C368204600F03A
:10531000F7F9C4EBC400034901EB80008560BDE8E8
:10532000FE830000AC2B04242DE9F04F85B0044629
:105330000D4616461F46DDE90F8BDDF838A02046E6
:105340000AF0D6FE8146C4EBC400264951F820007D
:10535000C4EBC401234A02EB8101496809FB010047
:10536000C4EBC40102EB8101C96806FB0151C4EB27
:10537000C4021C4B03EB8202526901FB0200049041
:10538000C4EBC400194651F82000C4EBC4011A460E
:1053900002EB8101496809FB0100C4EBC40102EB87
:1053A0008101C9680AFB0171C4EBC40203EB8202EC
:1053B000526901FB020003900021C4EBC4001A46AD
:1053C00002EB8000C068A0EB08004346CDE900B0C6
:1053D00002912046DDE9032100F092F905B0BDE815
:1053E000F08F0000AC2B04242DE9FE4F04460D463F
:1053F00016461F46DDF8309007F062FC012810D1F8
:1054000000221921204612F08FFF4B463A463146C2
:10541000284612F0B9F8204A1921204612F084FFDC
:1054200037E0781B00F10108A9EB0600401C029050
:1054300020460AF05DFE8246C4EBC400174951F8CD
:105440002000C4EBC401154A02EB810189680AFB04
:105450000100C4EBC40102EB8101C96806FB0151E4
:10546000C4EBC4020D4B03EB8202526901FB020B39
:10547000C4EBC4011A4602EB81010D98C968A1EB87
:105480000801CDE90010424659462046029B00F033
:10549000A7F9BDE8FE8F0000E9530008AC2B0424F7
:1054A00010B51AF01BFA10BDF8B504460D461646A5
:1054B0001F4603203B46324629460090204600F016
:1054C000DDF8F8BDF8B504460D4616461F46042023
:1054D0003B46324629460090204600F0CFF8F8BD02
:1054E000F8B504460D4616461F4600203B46324698
:1054F00029460090204600F0C1F8F8BDF8B50446F2
:105500000D4616461F4600203B463246294600906F
:10551000204600F0B3F8F8BD1CB50020009003460B
:10552000044A05210190044806F004FC0446204684
:105530001CBD00009139030860A503081CB50020BC
:1055400000900346044A05210190044806F0F2FB4E
:10555000044620461CBD0000153A03081CA603089B
:105560001CB5002000900346044A11210190044814
:1055700006F0E0FB044620461CBD00009D3A0308EF
:1055800050A103081CB5002000900346044A0921DD
:105590000190044806F0CEFB044620461CBD0000E6
:1055A000693D03085CA303081CB500200090034676
:1055B000044A06210190044806F0BCFB044620463C
:1055C0001CBD0000A13E030888A4030810B50249D1
:1055D000C86C0CF063FD10BDB01600242DE9F0413D
:1055E00007460C4615461E4632460B49384611F012
:1055F00009FA32460949204611F004FA3346084AAE
:105600000649054800F00EF832462946044811F0D4
:10561000F9F9BDE8F0810000C86B0424C8AB04248C
:10562000C82B042470B50024124D134E3560354646
:10563000E8606961EA6300253561B5613564F5614B
:1056400075627563012505EB0345756435462D6864
:1056500045F00105356004E0641CB4F5001F00D37B
:1056600005E0054D2D6805F00105002DF4D100BFC2
:1056700070BD000000020200001000522DE9F84346
:1056800005460E4614469846089F22460649284677
:1056900011F0C2F93B46002231460348009400F065
:1056A00005F8BDE8F8830000C82B0424F0B5059D7B
:1056B00000244FF48136114F3E603E46F060F163A6
:1056C00000263E613E643E46F2617363012606EBAE
:1056D00005467E643E46366846F001063E6004E0BC
:1056E000641CB4F5001F00D305E0044E366806F0D4
:1056F0000106002EF4D100BFF0BD000000100052E2
:105700002DE9FF5F0C4615461E46DDE90F9ADDF8D0
:1057100038800027009812F081F983464FF400701A
:10572000114908600846C460C563C0F81090C0F80D
:1057300040A0C0F81CB0404666F31F4048640846CD
:10574000006840F00100086004E07F1CB7F5001F0E
:1057500000D305E00448006800F001000028F4D1FF
:1057600000BFBDE8FF9F0000001000522DE9F0418E
:1057700006ADE0CD00244FF4813CDFF86080C8F82E
:1057800000C0C446CCF80C00CCF83C10CCF810207B
:10579000CCF840304FF0050CC8F81CC0C446CCF81B
:1057A000345047EA064CC8F844C0C446DCF800C090
:1057B0004CF0010CC8F800C004E0641CB4F5001FF4
:1057C00000D308E0DFF814C0DCF800C00CF0010CD6
:1057D000BCF1000FF1D100BFBDE8F0810010005214
:1057E0002DE9F05F80460C4615461E46DDE90A9A13
:1057F0000027404612F012F983461148114908600B
:105800000846C0F838A0C463C0F84090C0F834B06F
:10581000304665F31F4048640846006840F00100C8
:10582000086004E07F1CB7F5001F00D305E00548C1
:10583000006800F001000028F4D100BFBDE8F09F2F
:1058400000020300001000522DE9F84305460E4601
:1058500014469846089F00233A4606492846009475
:10586000FFF724FF22463146024811F0D5F8BDE883
:10587000F8830000C82B0424074AD0624A1ED2B223
:10588000012343EA0222044BDA611A46D26942F04C
:105890002002DA6170470000001000523EB5034656
:1058A000002401F07F40B0F17F4F01D118463EBD8A
:1058B00083F07F40029081F07F4001901748184D9F
:1058C000286002A8E86001A86861C5F83CD04FF4E0
:1058D000803040EA0260E861C2F1FF00002545EA3D
:1058E00000600F4D6862002068634FF0011068642B
:1058F0002846006840F00100286004E0641CB4F50C
:10590000001F00D305E00648006800F001000028F1
:10591000F4D100BF009880F07F40C8E70002020089
:1059200000100052F0B5059D0024164E164F3E6043
:105930003E46F0607161F2634FF4803646EA0366DA
:10594000FE61C3F1FF06002747EA06660E4F7E623E
:1059500000267E63012606EB05467E643E463668D9
:1059600046F001063E6004E0641CB4F5001F00D35D
:1059700005E0054E366806F00106002EF4D100BFA2
:10598000F0BD00000002020000100052014608783D
:1059900010381823B0FBF3F20848805CC865032A6E
:1059A00005D908686FF30900001D886503E00868E1
:1059B0006FF309008865886D704700007C53030809
:1059C00010B500210268174B9A4213D8154B8C3B37
:1059D0009A420FD30378083B1424B3FBF4F1124B23
:1059E00003EB81030366104B8033436601238B4036
:1059F000836616E00378103B1824B3FBF4F10B4BDD
:105A00009A4204D8094BA83B9A4200D30831084B6C
:105A100003EB81030366064B8033436601238B400F
:105A2000836610BD9454025800580258B8040240CE
:105A30000008024010B502680179E9B108291BD8B5
:105A40000E4B9A420CD80D4B8C3B9A4208D34B1EFE
:105A50000B4C04EB8303C366094B4033036707E039
:105A60004B1E084C04EB8303C366064B40330367AD
:105A70004B1E01249C40446710BD00009454025802
:105A80000059025800090240014600208A69D2B933
:105A90008A6A32B1012A0DD0022A03D0032A10D11A
:105AA0000EE000BFCA6A02F08072B2F1807F00D1BE
:105AB000012007E0CA6AB2F1C07F00D1012001E0F5
:105AC00000E000BF36E08A69B2F5005F1BD18A6A48
:105AD00032B1012A07D0022A03D0032A11D10AE0E9
